{
  "_format": "hh-sol-artifact-1",
  "contractName": "IdentityPassNFT",
  "sourceName": "contracts/IdentityPass.sol",
  "abi": [
    {
      "inputs": [],
      "stateMutability": "nonpayable",
      "type": "constructor"
    },
    {
      "inputs": [
        {
          "internalType": "address",
          "name": "sender",
          "type": "address"
        },
        {
          "internalType": "uint256",
          "name": "tokenId",
          "type": "uint256"
        },
        {
          "internalType": "address",
          "name": "owner",
          "type": "address"
        }
      ],
      "name": "ERC721IncorrectOwner",
      "type": "error"
    },
    {
      "inputs": [
        {
          "internalType": "address",
          "name": "operator",
          "type": "address"
        },
        {
          "internalType": "uint256",
          "name": "tokenId",
          "type": "uint256"
        }
      ],
      "name": "ERC721InsufficientApproval",
      "type": "error"
    },
    {
      "inputs": [
        {
          "internalType": "address",
          "name": "approver",
          "type": "address"
        }
      ],
      "name": "ERC721InvalidApprover",
      "type": "error"
    },
    {
      "inputs": [
        {
          "internalType": "address",
          "name": "operator",
          "type": "address"
        }
      ],
      "name": "ERC721InvalidOperator",
      "type": "error"
    },
    {
      "inputs": [
        {
          "internalType": "address",
          "name": "owner",
          "type": "address"
        }
      ],
      "name": "ERC721InvalidOwner",
      "type": "error"
    },
    {
      "inputs": [
        {
          "internalType": "address",
          "name": "receiver",
          "type": "address"
        }
      ],
      "name": "ERC721InvalidReceiver",
      "type": "error"
    },
    {
      "inputs": [
        {
          "internalType": "address",
          "name": "sender",
          "type": "address"
        }
      ],
      "name": "ERC721InvalidSender",
      "type": "error"
    },
    {
      "inputs": [
        {
          "internalType": "uint256",
          "name": "tokenId",
          "type": "uint256"
        }
      ],
      "name": "ERC721NonexistentToken",
      "type": "error"
    },
    {
      "anonymous": false,
      "inputs": [
        {
          "indexed": true,
          "internalType": "address",
          "name": "owner",
          "type": "address"
        },
        {
          "indexed": true,
          "internalType": "address",
          "name": "approved",
          "type": "address"
        },
        {
          "indexed": true,
          "internalType": "uint256",
          "name": "tokenId",
          "type": "uint256"
        }
      ],
      "name": "Approval",
      "type": "event"
    },
    {
      "anonymous": false,
      "inputs": [
        {
          "indexed": true,
          "internalType": "address",
          "name": "owner",
          "type": "address"
        },
        {
          "indexed": true,
          "internalType": "address",
          "name": "operator",
          "type": "address"
        },
        {
          "indexed": false,
          "internalType": "bool",
          "name": "approved",
          "type": "bool"
        }
      ],
      "name": "ApprovalForAll",
      "type": "event"
    },
    {
      "anonymous": false,
      "inputs": [
        {
          "indexed": true,
          "internalType": "address",
          "name": "from",
          "type": "address"
        },
        {
          "indexed": true,
          "internalType": "address",
          "name": "to",
          "type": "address"
        },
        {
          "indexed": true,
          "internalType": "uint256",
          "name": "tokenId",
          "type": "uint256"
        }
      ],
      "name": "Transfer",
      "type": "event"
    },
    {
      "inputs": [
        {
          "internalType": "address",
          "name": "",
          "type": "address"
        }
      ],
      "name": "addressMinted",
      "outputs": [
        {
          "internalType": "bool",
          "name": "",
          "type": "bool"
        }
      ],
      "stateMutability": "view",
      "type": "function"
    },
    {
      "inputs": [
        {
          "internalType": "address",
          "name": "to",
          "type": "address"
        },
        {
          "internalType": "uint256",
          "name": "tokenId",
          "type": "uint256"
        }
      ],
      "name": "approve",
      "outputs": [],
      "stateMutability": "nonpayable",
      "type": "function"
    },
    {
      "inputs": [
        {
          "internalType": "address",
          "name": "owner",
          "type": "address"
        }
      ],
      "name": "balanceOf",
      "outputs": [
        {
          "internalType": "uint256",
          "name": "",
          "type": "uint256"
        }
      ],
      "stateMutability": "view",
      "type": "function"
    },
    {
      "inputs": [
        {
          "internalType": "uint256",
          "name": "tokenId",
          "type": "uint256"
        }
      ],
      "name": "getApproved",
      "outputs": [
        {
          "internalType": "address",
          "name": "",
          "type": "address"
        }
      ],
      "stateMutability": "view",
      "type": "function"
    },
    {
      "inputs": [
        {
          "internalType": "address",
          "name": "user",
          "type": "address"
        }
      ],
      "name": "getTokenIdByAddress",
      "outputs": [
        {
          "internalType": "uint256",
          "name": "",
          "type": "uint256"
        }
      ],
      "stateMutability": "view",
      "type": "function"
    },
    {
      "inputs": [
        {
          "internalType": "address",
          "name": "owner",
          "type": "address"
        },
        {
          "internalType": "address",
          "name": "operator",
          "type": "address"
        }
      ],
      "name": "isApprovedForAll",
      "outputs": [
        {
          "internalType": "bool",
          "name": "",
          "type": "bool"
        }
      ],
      "stateMutability": "view",
      "type": "function"
    },
    {
      "inputs": [
        {
          "internalType": "string",
          "name": "name",
          "type": "string"
        },
        {
          "internalType": "uint256",
          "name": "age",
          "type": "uint256"
        },
        {
          "internalType": "string",
          "name": "country",
          "type": "string"
        },
        {
          "internalType": "string",
          "name": "gender",
          "type": "string"
        },
        {
          "internalType": "string",
          "name": "category",
          "type": "string"
        },
        {
          "internalType": "string",
          "name": "uniqueId",
          "type": "string"
        }
      ],
      "name": "mintIdentityNFT",
      "outputs": [],
      "stateMutability": "nonpayable",
      "type": "function"
    },
    {
      "inputs": [],
      "name": "name",
      "outputs": [
        {
          "internalType": "string",
          "name": "",
          "type": "string"
        }
      ],
      "stateMutability": "view",
      "type": "function"
    },
    {
      "inputs": [
        {
          "internalType": "uint256",
          "name": "tokenId",
          "type": "uint256"
        }
      ],
      "name": "ownerOf",
      "outputs": [
        {
          "internalType": "address",
          "name": "",
          "type": "address"
        }
      ],
      "stateMutability": "view",
      "type": "function"
    },
    {
      "inputs": [
        {
          "internalType": "uint256",
          "name": "",
          "type": "uint256"
        }
      ],
      "name": "patients",
      "outputs": [
        {
          "internalType": "string",
          "name": "name",
          "type": "string"
        },
        {
          "internalType": "uint256",
          "name": "age",
          "type": "uint256"
        },
        {
          "internalType": "string",
          "name": "country",
          "type": "string"
        },
        {
          "internalType": "string",
          "name": "gender",
          "type": "string"
        },
        {
          "internalType": "string",
          "name": "category",
          "type": "string"
        },
        {
          "internalType": "string",
          "name": "uniqueId",
          "type": "string"
        }
      ],
      "stateMutability": "view",
      "type": "function"
    },
    {
      "inputs": [
        {
          "internalType": "address",
          "name": "from",
          "type": "address"
        },
        {
          "internalType": "address",
          "name": "to",
          "type": "address"
        },
        {
          "internalType": "uint256",
          "name": "tokenId",
          "type": "uint256"
        }
      ],
      "name": "safeTransferFrom",
      "outputs": [],
      "stateMutability": "nonpayable",
      "type": "function"
    },
    {
      "inputs": [
        {
          "internalType": "address",
          "name": "from",
          "type": "address"
        },
        {
          "internalType": "address",
          "name": "to",
          "type": "address"
        },
        {
          "internalType": "uint256",
          "name": "tokenId",
          "type": "uint256"
        },
        {
          "internalType": "bytes",
          "name": "data",
          "type": "bytes"
        }
      ],
      "name": "safeTransferFrom",
      "outputs": [],
      "stateMutability": "nonpayable",
      "type": "function"
    },
    {
      "inputs": [
        {
          "internalType": "address",
          "name": "operator",
          "type": "address"
        },
        {
          "internalType": "bool",
          "name": "approved",
          "type": "bool"
        }
      ],
      "name": "setApprovalForAll",
      "outputs": [],
      "stateMutability": "nonpayable",
      "type": "function"
    },
    {
      "inputs": [
        {
          "internalType": "bytes4",
          "name": "interfaceId",
          "type": "bytes4"
        }
      ],
      "name": "supportsInterface",
      "outputs": [
        {
          "internalType": "bool",
          "name": "",
          "type": "bool"
        }
      ],
      "stateMutability": "view",
      "type": "function"
    },
    {
      "inputs": [],
      "name": "symbol",
      "outputs": [
        {
          "internalType": "string",
          "name": "",
          "type": "string"
        }
      ],
      "stateMutability": "view",
      "type": "function"
    },
    {
      "inputs": [],
      "name": "tokenCounter",
      "outputs": [
        {
          "internalType": "uint256",
          "name": "",
          "type": "uint256"
        }
      ],
      "stateMutability": "view",
      "type": "function"
    },
    {
      "inputs": [
        {
          "internalType": "uint256",
          "name": "tokenId",
          "type": "uint256"
        }
      ],
      "name": "tokenURI",
      "outputs": [
        {
          "internalType": "string",
          "name": "",
          "type": "string"
        }
      ],
      "stateMutability": "view",
      "type": "function"
    },
    {
      "inputs": [
        {
          "internalType": "address",
          "name": "from",
          "type": "address"
        },
        {
          "internalType": "address",
          "name": "to",
          "type": "address"
        },
        {
          "internalType": "uint256",
          "name": "tokenId",
          "type": "uint256"
        }
      ],
      "name": "transferFrom",
      "outputs": [],
      "stateMutability": "nonpayable",
      "type": "function"
    }
  ],
  "bytecode": "0x60806040523480156200001157600080fd5b506040518060400160405280600f81526020017f4964656e74697479506173734e465400000000000000000000000000000000008152506040518060400160405280600381526020017f49504e000000000000000000000000000000000000000000000000000000000081525081600090816200008f91906200032c565b508060019081620000a191906200032c565b505050600060068190555062000413565b600081519050919050565b7f4e487b7100000000000000000000000000000000000000000000000000000000600052604160045260246000fd5b7f4e487b7100000000000000000000000000000000000000000000000000000000600052602260045260246000fd5b600060028204905060018216806200013457607f821691505b6020821081036200014a5762000149620000ec565b5b50919050565b60008190508160005260206000209050919050565b60006020601f8301049050919050565b600082821b905092915050565b600060088302620001b47fffffffffffffffffffffffffffffffffffffffffffffffffffffffffffffffff8262000175565b620001c0868362000175565b95508019841693508086168417925050509392505050565b6000819050919050565b6000819050919050565b60006200020d620002076200020184620001d8565b620001e2565b620001d8565b9050919050565b6000819050919050565b6200022983620001ec565b62000241620002388262000214565b84845462000182565b825550505050565b600090565b6200025862000249565b620002658184846200021e565b505050565b5b818110156200028d57620002816000826200024e565b6001810190506200026b565b5050565b601f821115620002dc57620002a68162000150565b620002b18462000165565b81016020851015620002c1578190505b620002d9620002d08562000165565b8301826200026a565b50505b505050565b600082821c905092915050565b60006200030160001984600802620002e1565b1980831691505092915050565b60006200031c8383620002ee565b9150826002028217905092915050565b6200033782620000b2565b67ffffffffffffffff811115620003535762000352620000bd565b5b6200035f82546200011b565b6200036c82828562000291565b600060209050601f831160018114620003a457600084156200038f578287015190505b6200039b85826200030e565b8655506200040b565b601f198416620003b48662000150565b60005b82811015620003de57848901518255600182019150602085019450602081019050620003b7565b86831015620003fe5784890151620003fa601f891682620002ee565b8355505b6001600288020188555050505b505050505050565b612bb480620004236000396000f3fe608060405234801561001057600080fd5b50600436106101165760003560e01c80638cbab7e4116100a2578063b88d4fde11610071578063b88d4fde14610308578063c87b56dd14610324578063d082e38114610354578063e985e9c514610372578063fa30297e146103a257610116565b80638cbab7e41461026957806393119a831461029957806395d89b41146102ce578063a22cb465146102ec57610116565b8063095ea7b3116100e9578063095ea7b3146101b557806323b872dd146101d157806342842e0e146101ed5780636352211e1461020957806370a082311461023957610116565b806301ffc9a71461011b578063042ce7391461014b57806306fdde0314610167578063081812fc14610185575b600080fd5b61013560048036038101906101309190611d2d565b6103d2565b6040516101429190611d75565b60405180910390f35b61016560048036038101906101609190611f0c565b6104b4565b005b61016f610692565b60405161017c91906120a4565b60405180910390f35b61019f600480360381019061019a91906120c6565b610724565b6040516101ac9190612134565b60405180910390f35b6101cf60048036038101906101ca919061217b565b610740565b005b6101eb60048036038101906101e691906121bb565b610756565b005b610207600480360381019061020291906121bb565b610858565b005b610223600480360381019061021e91906120c6565b610878565b6040516102309190612134565b60405180910390f35b610253600480360381019061024e919061220e565b61088a565b604051610260919061224a565b60405180910390f35b610283600480360381019061027e919061220e565b610944565b604051610290919061224a565b60405180910390f35b6102b360048036038101906102ae91906120c6565b610a7a565b6040516102c596959493929190612265565b60405180910390f35b6102d6610d5e565b6040516102e391906120a4565b60405180910390f35b61030660048036038101906103019190612315565b610df0565b005b610322600480360381019061031d91906123f6565b610e06565b005b61033e600480360381019061033991906120c6565b610e23565b60405161034b91906120a4565b60405180910390f35b61035c610e8c565b604051610369919061224a565b60405180910390f35b61038c60048036038101906103879190612479565b610e92565b6040516103999190611d75565b60405180910390f35b6103bc60048036038101906103b7919061220e565b610f26565b6040516103c99190611d75565b60405180910390f35b60007f80ac58cd000000000000000000000000000000000000000000000000000000007bffffffffffffffffffffffffffffffffffffffffffffffffffffffff1916827bffffffffffffffffffffffffffffffffffffffffffffffffffffffff1916148061049d57507f5b5e139f000000000000000000000000000000000000000000000000000000007bffffffffffffffffffffffffffffffffffffffffffffffffffffffff1916827bffffffffffffffffffffffffffffffffffffffffffffffffffffffff1916145b806104ad57506104ac82610f46565b5b9050919050565b600860003373ffffffffffffffffffffffffffffffffffffffff1673ffffffffffffffffffffffffffffffffffffffff16815260200190815260200160002060009054906101000a900460ff1615610541576040517f08c379a00000000000000000000000000000000000000000000000000000000081526004016105389061252b565b60405180910390fd5b60006001600654610552919061257a565b905061055e3382610fb0565b6040518060c00160405280888152602001878152602001868152602001858152602001848152602001838152506007600083815260200190815260200160002060008201518160000190816105b391906127ba565b506020820151816001015560408201518160020190816105d391906127ba565b5060608201518160030190816105e991906127ba565b5060808201518160040190816105ff91906127ba565b5060a082015181600501908161061591906127ba565b509050506001600860003373ffffffffffffffffffffffffffffffffffffffff1673ffffffffffffffffffffffffffffffffffffffff16815260200190815260200160002060006101000a81548160ff021916908315150217905550600660008154809291906106849061288c565b919050555050505050505050565b6060600080546106a1906125dd565b80601f01602080910402602001604051908101604052809291908181526020018280546106cd906125dd565b801561071a5780601f106106ef5761010080835404028352916020019161071a565b820191906000526020600020905b8154815290600101906020018083116106fd57829003601f168201915b5050505050905090565b600061072f82610fce565b5061073982611056565b9050919050565b610752828261074d611093565b61109b565b5050565b600073ffffffffffffffffffffffffffffffffffffffff168273ffffffffffffffffffffffffffffffffffffffff16036107c85760006040517f64a0ae920000000000000000000000000000000000000000000000000000000081526004016107bf9190612134565b60405180910390fd5b60006107dc83836107d7611093565b6110ad565b90508373ffffffffffffffffffffffffffffffffffffffff168173ffffffffffffffffffffffffffffffffffffffff1614610852578382826040517f64283d7b000000000000000000000000000000000000000000000000000000008152600401610849939291906128d4565b60405180910390fd5b50505050565b61087383838360405180602001604052806000815250610e06565b505050565b600061088382610fce565b9050919050565b60008073ffffffffffffffffffffffffffffffffffffffff168273ffffffffffffffffffffffffffffffffffffffff16036108fd5760006040517f89c62b640000000000000000000000000000000000000000000000000000000081526004016108f49190612134565b60405180910390fd5b600360008373ffffffffffffffffffffffffffffffffffffffff1673ffffffffffffffffffffffffffffffffffffffff168152602001908152602001600020549050919050565b6000600860008373ffffffffffffffffffffffffffffffffffffffff1673ffffffffffffffffffffffffffffffffffffffff16815260200190815260200160002060009054906101000a900460ff166109d2576040517f08c379a00000000000000000000000000000000000000000000000000000000081526004016109c990612957565b60405180910390fd5b6000600190505b6006548111610a39578273ffffffffffffffffffffffffffffffffffffffff16610a0282610878565b73ffffffffffffffffffffffffffffffffffffffff1603610a265780915050610a75565b8080610a319061288c565b9150506109d9565b506040517f08c379a0000000000000000000000000000000000000000000000000000000008152600401610a6c906129c3565b60405180910390fd5b919050565b6007602052806000526040600020600091509050806000018054610a9d906125dd565b80601f0160208091040260200160405190810160405280929190818152602001828054610ac9906125dd565b8015610b165780601f10610aeb57610100808354040283529160200191610b16565b820191906000526020600020905b815481529060010190602001808311610af957829003601f168201915b505050505090806001015490806002018054610b31906125dd565b80601f0160208091040260200160405190810160405280929190818152602001828054610b5d906125dd565b8015610baa5780601f10610b7f57610100808354040283529160200191610baa565b820191906000526020600020905b815481529060010190602001808311610b8d57829003601f168201915b505050505090806003018054610bbf906125dd565b80601f0160208091040260200160405190810160405280929190818152602001828054610beb906125dd565b8015610c385780601f10610c0d57610100808354040283529160200191610c38565b820191906000526020600020905b815481529060010190602001808311610c1b57829003601f168201915b505050505090806004018054610c4d906125dd565b80601f0160208091040260200160405190810160405280929190818152602001828054610c79906125dd565b8015610cc65780601f10610c9b57610100808354040283529160200191610cc6565b820191906000526020600020905b815481529060010190602001808311610ca957829003601f168201915b505050505090806005018054610cdb906125dd565b80601f0160208091040260200160405190810160405280929190818152602001828054610d07906125dd565b8015610d545780601f10610d2957610100808354040283529160200191610d54565b820191906000526020600020905b815481529060010190602001808311610d3757829003601f168201915b5050505050905086565b606060018054610d6d906125dd565b80601f0160208091040260200160405190810160405280929190818152602001828054610d99906125dd565b8015610de65780601f10610dbb57610100808354040283529160200191610de6565b820191906000526020600020905b815481529060010190602001808311610dc957829003601f168201915b5050505050905090565b610e02610dfb611093565b83836112c7565b5050565b610e11848484610756565b610e1d84848484611436565b50505050565b6060610e2e82610fce565b506000610e396115ed565b90506000815111610e595760405180602001604052806000815250610e84565b80610e6384611604565b604051602001610e74929190612a1f565b6040516020818303038152906040525b915050919050565b60065481565b6000600560008473ffffffffffffffffffffffffffffffffffffffff1673ffffffffffffffffffffffffffffffffffffffff16815260200190815260200160002060008373ffffffffffffffffffffffffffffffffffffffff1673ffffffffffffffffffffffffffffffffffffffff16815260200190815260200160002060009054906101000a900460ff16905092915050565b60086020528060005260406000206000915054906101000a900460ff1681565b60007f01ffc9a7000000000000000000000000000000000000000000000000000000007bffffffffffffffffffffffffffffffffffffffffffffffffffffffff1916827bffffffffffffffffffffffffffffffffffffffffffffffffffffffff1916149050919050565b610fca8282604051806020016040528060008152506116d2565b5050565b600080610fda836116ee565b9050600073ffffffffffffffffffffffffffffffffffffffff168173ffffffffffffffffffffffffffffffffffffffff160361104d57826040517f7e273289000000000000000000000000000000000000000000000000000000008152600401611044919061224a565b60405180910390fd5b80915050919050565b60006004600083815260200190815260200160002060009054906101000a900473ffffffffffffffffffffffffffffffffffffffff169050919050565b600033905090565b6110a8838383600161172b565b505050565b6000806110b9846116ee565b9050600073ffffffffffffffffffffffffffffffffffffffff168373ffffffffffffffffffffffffffffffffffffffff16146110fb576110fa8184866118f0565b5b600073ffffffffffffffffffffffffffffffffffffffff168173ffffffffffffffffffffffffffffffffffffffff161461118c5761113d60008560008061172b565b6001600360008373ffffffffffffffffffffffffffffffffffffffff1673ffffffffffffffffffffffffffffffffffffffff168152602001908152602001600020600082825403925050819055505b600073ffffffffffffffffffffffffffffffffffffffff168573ffffffffffffffffffffffffffffffffffffffff161461120f576001600360008773ffffffffffffffffffffffffffffffffffffffff1673ffffffffffffffffffffffffffffffffffffffff168152602001908152602001600020600082825401925050819055505b846002600086815260200190815260200160002060006101000a81548173ffffffffffffffffffffffffffffffffffffffff021916908373ffffffffffffffffffffffffffffffffffffffff160217905550838573ffffffffffffffffffffffffffffffffffffffff168273ffffffffffffffffffffffffffffffffffffffff167fddf252ad1be2c89b69c2b068fc378daa952ba7f163c4a11628f55a4df523b3ef60405160405180910390a4809150509392505050565b600073ffffffffffffffffffffffffffffffffffffffff168273ffffffffffffffffffffffffffffffffffffffff160361133857816040517f5b08ba1800000000000000000000000000000000000000000000000000000000815260040161132f9190612134565b60405180910390fd5b80600560008573ffffffffffffffffffffffffffffffffffffffff1673ffffffffffffffffffffffffffffffffffffffff16815260200190815260200160002060008473ffffffffffffffffffffffffffffffffffffffff1673ffffffffffffffffffffffffffffffffffffffff16815260200190815260200160002060006101000a81548160ff0219169083151502179055508173ffffffffffffffffffffffffffffffffffffffff168373ffffffffffffffffffffffffffffffffffffffff167f17307eab39ab6107e8899845ad3d59bd9653f200f220920489ca2b5937696c31836040516114299190611d75565b60405180910390a3505050565b60008373ffffffffffffffffffffffffffffffffffffffff163b11156115e7578273ffffffffffffffffffffffffffffffffffffffff1663150b7a0261147a611093565b8685856040518563ffffffff1660e01b815260040161149c9493929190612a98565b6020604051808303816000875af19250505080156114d857506040513d601f19601f820116820180604052508101906114d59190612af9565b60015b61155c573d8060008114611508576040519150601f19603f3d011682016040523d82523d6000602084013e61150d565b606091505b50600081510361155457836040517f64a0ae9200000000000000000000000000000000000000000000000000000000815260040161154b9190612134565b60405180910390fd5b805181602001fd5b63150b7a0260e01b7bffffffffffffffffffffffffffffffffffffffffffffffffffffffff1916817bffffffffffffffffffffffffffffffffffffffffffffffffffffffff1916146115e557836040517f64a0ae920000000000000000000000000000000000000000000000000000000081526004016115dc9190612134565b60405180910390fd5b505b50505050565b606060405180602001604052806000815250905090565b606060006001611613846119b4565b01905060008167ffffffffffffffff81111561163257611631611dab565b5b6040519080825280601f01601f1916602001820160405280156116645781602001600182028036833780820191505090505b509050600082602001820190505b6001156116c7578080600190039150507f3031323334353637383961626364656600000000000000000000000000000000600a86061a8153600a85816116bb576116ba612b26565b5b04945060008503611672575b819350505050919050565b6116dc8383611b07565b6116e96000848484611436565b505050565b60006002600083815260200190815260200160002060009054906101000a900473ffffffffffffffffffffffffffffffffffffffff169050919050565b80806117645750600073ffffffffffffffffffffffffffffffffffffffff168273ffffffffffffffffffffffffffffffffffffffff1614155b1561189857600061177484610fce565b9050600073ffffffffffffffffffffffffffffffffffffffff168373ffffffffffffffffffffffffffffffffffffffff16141580156117df57508273ffffffffffffffffffffffffffffffffffffffff168173ffffffffffffffffffffffffffffffffffffffff1614155b80156117f257506117f08184610e92565b155b1561183457826040517fa9fbf51f00000000000000000000000000000000000000000000000000000000815260040161182b9190612134565b60405180910390fd5b811561189657838573ffffffffffffffffffffffffffffffffffffffff168273ffffffffffffffffffffffffffffffffffffffff167f8c5be1e5ebec7d5bd14f71427d1e84f3dd0314c0f7b2291e5b200ac8c7c3b92560405160405180910390a45b505b836004600085815260200190815260200160002060006101000a81548173ffffffffffffffffffffffffffffffffffffffff021916908373ffffffffffffffffffffffffffffffffffffffff16021790555050505050565b6118fb838383611c00565b6119af57600073ffffffffffffffffffffffffffffffffffffffff168373ffffffffffffffffffffffffffffffffffffffff160361197057806040517f7e273289000000000000000000000000000000000000000000000000000000008152600401611967919061224a565b60405180910390fd5b81816040517f177e802f0000000000000000000000000000000000000000000000000000000081526004016119a6929190612b55565b60405180910390fd5b505050565b600080600090507a184f03e93ff9f4daa797ed6e38ed64bf6a1f0100000000000000008310611a12577a184f03e93ff9f4daa797ed6e38ed64bf6a1f0100000000000000008381611a0857611a07612b26565b5b0492506040810190505b6d04ee2d6d415b85acef81000000008310611a4f576d04ee2d6d415b85acef81000000008381611a4557611a44612b26565b5b0492506020810190505b662386f26fc100008310611a7e57662386f26fc100008381611a7457611a73612b26565b5b0492506010810190505b6305f5e1008310611aa7576305f5e1008381611a9d57611a9c612b26565b5b0492506008810190505b6127108310611acc576127108381611ac257611ac1612b26565b5b0492506004810190505b60648310611aef5760648381611ae557611ae4612b26565b5b0492506002810190505b600a8310611afe576001810190505b80915050919050565b600073ffffffffffffffffffffffffffffffffffffffff168273ffffffffffffffffffffffffffffffffffffffff1603611b795760006040517f64a0ae92000000000000000000000000000000000000000000000000000000008152600401611b709190612134565b60405180910390fd5b6000611b87838360006110ad565b9050600073ffffffffffffffffffffffffffffffffffffffff168173ffffffffffffffffffffffffffffffffffffffff1614611bfb5760006040517f73c6ac6e000000000000000000000000000000000000000000000000000000008152600401611bf29190612134565b60405180910390fd5b505050565b60008073ffffffffffffffffffffffffffffffffffffffff168373ffffffffffffffffffffffffffffffffffffffff1614158015611cb857508273ffffffffffffffffffffffffffffffffffffffff168473ffffffffffffffffffffffffffffffffffffffff161480611c795750611c788484610e92565b5b80611cb757508273ffffffffffffffffffffffffffffffffffffffff16611c9f83611056565b73ffffffffffffffffffffffffffffffffffffffff16145b5b90509392505050565b6000604051905090565b600080fd5b600080fd5b60007fffffffff0000000000000000000000000000000000000000000000000000000082169050919050565b611d0a81611cd5565b8114611d1557600080fd5b50565b600081359050611d2781611d01565b92915050565b600060208284031215611d4357611d42611ccb565b5b6000611d5184828501611d18565b91505092915050565b60008115159050919050565b611d6f81611d5a565b82525050565b6000602082019050611d8a6000830184611d66565b92915050565b600080fd5b600080fd5b6000601f19601f8301169050919050565b7f4e487b7100000000000000000000000000000000000000000000000000000000600052604160045260246000fd5b611de382611d9a565b810181811067ffffffffffffffff82111715611e0257611e01611dab565b5b80604052505050565b6000611e15611cc1565b9050611e218282611dda565b919050565b600067ffffffffffffffff821115611e4157611e40611dab565b5b611e4a82611d9a565b9050602081019050919050565b82818337600083830152505050565b6000611e79611e7484611e26565b611e0b565b905082815260208101848484011115611e9557611e94611d95565b5b611ea0848285611e57565b509392505050565b600082601f830112611ebd57611ebc611d90565b5b8135611ecd848260208601611e66565b91505092915050565b6000819050919050565b611ee981611ed6565b8114611ef457600080fd5b50565b600081359050611f0681611ee0565b92915050565b60008060008060008060c08789031215611f2957611f28611ccb565b5b600087013567ffffffffffffffff811115611f4757611f46611cd0565b5b611f5389828a01611ea8565b9650506020611f6489828a01611ef7565b955050604087013567ffffffffffffffff811115611f8557611f84611cd0565b5b611f9189828a01611ea8565b945050606087013567ffffffffffffffff811115611fb257611fb1611cd0565b5b611fbe89828a01611ea8565b935050608087013567ffffffffffffffff811115611fdf57611fde611cd0565b5b611feb89828a01611ea8565b92505060a087013567ffffffffffffffff81111561200c5761200b611cd0565b5b61201889828a01611ea8565b9150509295509295509295565b600081519050919050565b600082825260208201905092915050565b60005b8381101561205f578082015181840152602081019050612044565b60008484015250505050565b600061207682612025565b6120808185612030565b9350612090818560208601612041565b61209981611d9a565b840191505092915050565b600060208201905081810360008301526120be818461206b565b905092915050565b6000602082840312156120dc576120db611ccb565b5b60006120ea84828501611ef7565b91505092915050565b600073ffffffffffffffffffffffffffffffffffffffff82169050919050565b600061211e826120f3565b9050919050565b61212e81612113565b82525050565b60006020820190506121496000830184612125565b92915050565b61215881612113565b811461216357600080fd5b50565b6000813590506121758161214f565b92915050565b6000806040838503121561219257612191611ccb565b5b60006121a085828601612166565b92505060206121b185828601611ef7565b9150509250929050565b6000806000606084860312156121d4576121d3611ccb565b5b60006121e286828701612166565b93505060206121f386828701612166565b925050604061220486828701611ef7565b9150509250925092565b60006020828403121561222457612223611ccb565b5b600061223284828501612166565b91505092915050565b61224481611ed6565b82525050565b600060208201905061225f600083018461223b565b92915050565b600060c082019050818103600083015261227f818961206b565b905061228e602083018861223b565b81810360408301526122a0818761206b565b905081810360608301526122b4818661206b565b905081810360808301526122c8818561206b565b905081810360a08301526122dc818461206b565b9050979650505050505050565b6122f281611d5a565b81146122fd57600080fd5b50565b60008135905061230f816122e9565b92915050565b6000806040838503121561232c5761232b611ccb565b5b600061233a85828601612166565b925050602061234b85828601612300565b9150509250929050565b600067ffffffffffffffff8211156123705761236f611dab565b5b61237982611d9a565b9050602081019050919050565b600061239961239484612355565b611e0b565b9050828152602081018484840111156123b5576123b4611d95565b5b6123c0848285611e57565b509392505050565b600082601f8301126123dd576123dc611d90565b5b81356123ed848260208601612386565b91505092915050565b600080600080608085870312156124105761240f611ccb565b5b600061241e87828801612166565b945050602061242f87828801612166565b935050604061244087828801611ef7565b925050606085013567ffffffffffffffff81111561246157612460611cd0565b5b61246d878288016123c8565b91505092959194509250565b600080604083850312156124905761248f611ccb565b5b600061249e85828601612166565b92505060206124af85828601612166565b9150509250929050565b7f416464726573732068617320616c7265616479206d696e74656420616e204e4660008201527f5400000000000000000000000000000000000000000000000000000000000000602082015250565b6000612515602183612030565b9150612520826124b9565b604082019050919050565b6000602082019050818103600083015261254481612508565b9050919050565b7f4e487b7100000000000000000000000000000000000000000000000000000000600052601160045260246000fd5b600061258582611ed6565b915061259083611ed6565b92508282019050808211156125a8576125a761254b565b5b92915050565b7f4e487b7100000000000000000000000000000000000000000000000000000000600052602260045260246000fd5b600060028204905060018216806125f557607f821691505b602082108103612608576126076125ae565b5b50919050565b60008190508160005260206000209050919050565b60006020601f8301049050919050565b600082821b905092915050565b6000600883026126707fffffffffffffffffffffffffffffffffffffffffffffffffffffffffffffffff82612633565b61267a8683612633565b95508019841693508086168417925050509392505050565b6000819050919050565b60006126b76126b26126ad84611ed6565b612692565b611ed6565b9050919050565b6000819050919050565b6126d18361269c565b6126e56126dd826126be565b848454612640565b825550505050565b600090565b6126fa6126ed565b6127058184846126c8565b505050565b5b818110156127295761271e6000826126f2565b60018101905061270b565b5050565b601f82111561276e5761273f8161260e565b61274884612623565b81016020851015612757578190505b61276b61276385612623565b83018261270a565b50505b505050565b600082821c905092915050565b600061279160001984600802612773565b1980831691505092915050565b60006127aa8383612780565b9150826002028217905092915050565b6127c382612025565b67ffffffffffffffff8111156127dc576127db611dab565b5b6127e682546125dd565b6127f182828561272d565b600060209050601f8311600181146128245760008415612812578287015190505b61281c858261279e565b865550612884565b601f1984166128328661260e565b60005b8281101561285a57848901518255600182019150602085019450602081019050612835565b868310156128775784890151612873601f891682612780565b8355505b6001600288020188555050505b505050505050565b600061289782611ed6565b91507fffffffffffffffffffffffffffffffffffffffffffffffffffffffffffffffff82036128c9576128c861254b565b5b600182019050919050565b60006060820190506128e96000830186612125565b6128f6602083018561223b565b6129036040830184612125565b949350505050565b7f4164647265737320686173206e6f74206d696e74656420616e204e4654000000600082015250565b6000612941601d83612030565b915061294c8261290b565b602082019050919050565b6000602082019050818103600083015261297081612934565b9050919050565b7f4e4654206e6f7420666f756e6420666f72207468652061646472657373000000600082015250565b60006129ad601d83612030565b91506129b882612977565b602082019050919050565b600060208201905081810360008301526129dc816129a0565b9050919050565b600081905092915050565b60006129f982612025565b612a0381856129e3565b9350612a13818560208601612041565b80840191505092915050565b6000612a2b82856129ee565b9150612a3782846129ee565b91508190509392505050565b600081519050919050565b600082825260208201905092915050565b6000612a6a82612a43565b612a748185612a4e565b9350612a84818560208601612041565b612a8d81611d9a565b840191505092915050565b6000608082019050612aad6000830187612125565b612aba6020830186612125565b612ac7604083018561223b565b8181036060830152612ad98184612a5f565b905095945050505050565b600081519050612af381611d01565b92915050565b600060208284031215612b0f57612b0e611ccb565b5b6000612b1d84828501612ae4565b91505092915050565b7f4e487b7100000000000000000000000000000000000000000000000000000000600052601260045260246000fd5b6000604082019050612b6a6000830185612125565b612b77602083018461223b565b939250505056fea2646970667358221220dbd5b8f65e903a6c8a4d7843c42a1d908ec4a0077df843f7fd383f98c190a20064736f6c63430008180033",
  "linkReferences": {},
  "deployedLinkReferences": {}
}